{
  "contractName": "Funder",
  "abi": [
    {
      "inputs": [],
      "name": "noOfFunders",
      "outputs": [
        {
          "internalType": "uint256",
          "name": "",
          "type": "uint256"
        }
      ],
      "stateMutability": "view",
      "type": "function"
    },
    {
      "stateMutability": "payable",
      "type": "receive"
    },
    {
      "inputs": [],
      "name": "transfer",
      "outputs": [],
      "stateMutability": "payable",
      "type": "function"
    },
    {
      "inputs": [
        {
          "internalType": "uint256",
          "name": "withdrawAmount",
          "type": "uint256"
        }
      ],
      "name": "withdraw",
      "outputs": [],
      "stateMutability": "nonpayable",
      "type": "function"
    }
  ],
  "bytecode": "0x608060405234801561001057600080fd5b506102d7806100206000396000f3fe6080604052600436106100385760003560e01c80632e1a7d4d1461004457806347cac45c1461006d5780638a4068dd146100985761003f565b3661003f57005b600080fd5b34801561005057600080fd5b5061006b600480360381019061006691906101cd565b6100a2565b005b34801561007957600080fd5b50610082610137565b60405161008f9190610209565b60405180910390f35b6100a061013d565b005b671bc16d674ec800008111156100ed576040517f08c379a00000000000000000000000000000000000000000000000000000000081526004016100e490610281565b60405180910390fd5b3373ffffffffffffffffffffffffffffffffffffffff166108fc829081150290604051600060405180830381858888f19350505050158015610133573d6000803e3d6000fd5b5050565b60005481565b33600160008054815260200190815260200160002060006101000a81548173ffffffffffffffffffffffffffffffffffffffff021916908373ffffffffffffffffffffffffffffffffffffffff160217905550565b600080fd5b6000819050919050565b6101aa81610197565b81146101b557600080fd5b50565b6000813590506101c7816101a1565b92915050565b6000602082840312156101e3576101e2610192565b5b60006101f1848285016101b8565b91505092915050565b61020381610197565b82525050565b600060208201905061021e60008301846101fa565b92915050565b600082825260208201905092915050565b7f4d6f7265207468656e2032206574686572206e6f7420616c6c6f776564000000600082015250565b600061026b601d83610224565b915061027682610235565b602082019050919050565b6000602082019050818103600083015261029a8161025e565b905091905056fea2646970667358221220db4c54adfbf632b121fe387e1f1ab6526598c7711524570699534d76c65c89b664736f6c63430008110033",
  "immutableReferences": {},
  "source": "// SPDX-License-Identifier: GPL-3.0\r\n\r\npragma solidity 0.8.17;\r\n\r\n\r\ncontract Funder{\r\n    uint public noOfFunders;\r\n\r\n    mapping(uint => address) private funders;\r\n\r\n    receive() external payable {}\r\n\r\n    function transfer() external payable{\r\n        funders[noOfFunders] = msg.sender;\r\n    }\r\n\r\n    function withdraw(uint withdrawAmount) external{\r\n        require(withdrawAmount <= 2000000000000000000,\"More then 2 ether not allowed\");\r\n        payable(msg.sender).transfer(withdrawAmount);\r\n    }\r\n\r\n}\r\n\r\n",
  "sourcePath": "C:\\Users\\IOTric\\Desktop\\mine\\blockchain\\fund-transfer-Dapp\\contracts\\Migration.sol",
  "compiler": {
    "name": "solc",
    "version": "0.8.17+commit.8df45f5f.Emscripten.clang"
  },
  "schemaVersion": "3.4.11",
  "updatedAt": "2022-12-04T14:03:29.290Z",
  "devdoc": {
    "kind": "dev",
    "methods": {},
    "version": 1
  },
  "userdoc": {
    "kind": "user",
    "methods": {},
    "version": 1
  }
}