{
  "contractName": "Lottery",
  "abi": [
    {
      "inputs": [],
      "stateMutability": "nonpayable",
      "type": "constructor"
    },
    {
      "inputs": [
        {
          "internalType": "uint256",
          "name": "",
          "type": "uint256"
        }
      ],
      "name": "players",
      "outputs": [
        {
          "internalType": "address payable",
          "name": "",
          "type": "address"
        }
      ],
      "stateMutability": "view",
      "type": "function",
      "constant": true
    },
    {
      "inputs": [],
      "name": "winner",
      "outputs": [
        {
          "internalType": "address payable",
          "name": "",
          "type": "address"
        }
      ],
      "stateMutability": "view",
      "type": "function",
      "constant": true
    },
    {
      "stateMutability": "payable",
      "type": "receive",
      "payable": true
    },
    {
      "inputs": [],
      "name": "getBalance",
      "outputs": [
        {
          "internalType": "uint256",
          "name": "",
          "type": "uint256"
        }
      ],
      "stateMutability": "view",
      "type": "function",
      "constant": true
    },
    {
      "inputs": [],
      "name": "pickWinner",
      "outputs": [],
      "stateMutability": "nonpayable",
      "type": "function"
    },
    {
      "inputs": [],
      "name": "alPlayers",
      "outputs": [
        {
          "internalType": "address payable[]",
          "name": "",
          "type": "address[]"
        }
      ],
      "stateMutability": "view",
      "type": "function",
      "constant": true
    }
  ],
  "bytecode": "0x608060405234801561001057600080fd5b5033600160006101000a81548173ffffffffffffffffffffffffffffffffffffffff021916908373ffffffffffffffffffffffffffffffffffffffff160217905550610b74806100616000396000f3fe60806040526004361061004e5760003560e01c806312065fe014610106578063524e2cf8146101315780635d495aea1461015c578063dfbf53ae14610173578063f71d96cb1461019e57610101565b3661010157670de0b6b3a7640000341461009d576040517f08c379a0000000000000000000000000000000000000000000000000000000008152600401610094906106f0565b60405180910390fd5b6000339080600181540180825580915050600190039060005260206000200160009091909190916101000a81548173ffffffffffffffffffffffffffffffffffffffff021916908373ffffffffffffffffffffffffffffffffffffffff1602179055005b600080fd5b34801561011257600080fd5b5061011b6101db565b6040516101289190610729565b60405180910390f35b34801561013d57600080fd5b50610146610273565b6040516101539190610834565b60405180910390f35b34801561016857600080fd5b50610171610301565b005b34801561017f57600080fd5b5061018861054d565b6040516101959190610865565b60405180910390f35b3480156101aa57600080fd5b506101c560048036038101906101c091906108b1565b610573565b6040516101d29190610865565b60405180910390f35b60003373ffffffffffffffffffffffffffffffffffffffff16600160009054906101000a900473ffffffffffffffffffffffffffffffffffffffff1673ffffffffffffffffffffffffffffffffffffffff161461026d576040517f08c379a00000000000000000000000000000000000000000000000000000000081526004016102649061092a565b60405180910390fd5b47905090565b606060008054806020026020016040519081016040528092919081815260200182805480156102f757602002820191906000526020600020905b8160009054906101000a900473ffffffffffffffffffffffffffffffffffffffff1673ffffffffffffffffffffffffffffffffffffffff16815260200190600101908083116102ad575b5050505050905090565b600160009054906101000a900473ffffffffffffffffffffffffffffffffffffffff1673ffffffffffffffffffffffffffffffffffffffff163373ffffffffffffffffffffffffffffffffffffffff1614610391576040517f08c379a000000000000000000000000000000000000000000000000000000000815260040161038890610996565b60405180910390fd5b600360008054905010156103da576040517f08c379a00000000000000000000000000000000000000000000000000000000081526004016103d190610a02565b60405180910390fd5b60006103e46105b2565b905060008080549050826103f89190610a51565b90506000818154811061040e5761040d610a82565b5b9060005260206000200160009054906101000a900473ffffffffffffffffffffffffffffffffffffffff16600260006101000a81548173ffffffffffffffffffffffffffffffffffffffff021916908373ffffffffffffffffffffffffffffffffffffffff160217905550600260009054906101000a900473ffffffffffffffffffffffffffffffffffffffff1673ffffffffffffffffffffffffffffffffffffffff166108fc6104bd6101db565b9081150290604051600060405180830381858888f193505050501580156104e8573d6000803e3d6000fd5b50600067ffffffffffffffff81111561050457610503610ab1565b5b6040519080825280602002602001820160405280156105325781602001602082028036833780820191505090505b50600090805190602001906105489291906105ec565b505050565b600260009054906101000a900473ffffffffffffffffffffffffffffffffffffffff1681565b6000818154811061058357600080fd5b906000526020600020016000915054906101000a900473ffffffffffffffffffffffffffffffffffffffff1681565b600044426000805490506040516020016105ce93929190610b01565b6040516020818303038152906040528051906020012060001c905090565b828054828255906000526020600020908101928215610665579160200282015b828111156106645782518260006101000a81548173ffffffffffffffffffffffffffffffffffffffff021916908373ffffffffffffffffffffffffffffffffffffffff1602179055509160200191906001019061060c565b5b5090506106729190610676565b5090565b5b8082111561068f576000816000905550600101610677565b5090565b600082825260208201905092915050565b7f506c65617365207061792031206574686572206f6e6c79000000000000000000600082015250565b60006106da601783610693565b91506106e5826106a4565b602082019050919050565b60006020820190508181036000830152610709816106cd565b9050919050565b6000819050919050565b61072381610710565b82525050565b600060208201905061073e600083018461071a565b92915050565b600081519050919050565b600082825260208201905092915050565b6000819050602082019050919050565b600073ffffffffffffffffffffffffffffffffffffffff82169050919050565b600061079b82610770565b9050919050565b6107ab81610790565b82525050565b60006107bd83836107a2565b60208301905092915050565b6000602082019050919050565b60006107e182610744565b6107eb818561074f565b93506107f683610760565b8060005b8381101561082757815161080e88826107b1565b9750610819836107c9565b9250506001810190506107fa565b5085935050505092915050565b6000602082019050818103600083015261084e81846107d6565b905092915050565b61085f81610790565b82525050565b600060208201905061087a6000830184610856565b92915050565b600080fd5b61088e81610710565b811461089957600080fd5b50565b6000813590506108ab81610885565b92915050565b6000602082840312156108c7576108c6610880565b5b60006108d58482850161089c565b91505092915050565b7f796f7520617265206e6f7420746865206d616e61676572000000000000000000600082015250565b6000610914601783610693565b915061091f826108de565b602082019050919050565b6000602082019050818103600083015261094381610907565b9050919050565b7f596f757220617265206e6f74206d616e61676572000000000000000000000000600082015250565b6000610980601483610693565b915061098b8261094a565b602082019050919050565b600060208201905081810360008301526109af81610973565b9050919050565b7f506c6179657220617265206c657373207468656e203300000000000000000000600082015250565b60006109ec601683610693565b91506109f7826109b6565b602082019050919050565b60006020820190508181036000830152610a1b816109df565b9050919050565b7f4e487b7100000000000000000000000000000000000000000000000000000000600052601260045260246000fd5b6000610a5c82610710565b9150610a6783610710565b925082610a7757610a76610a22565b5b828206905092915050565b7f4e487b7100000000000000000000000000000000000000000000000000000000600052603260045260246000fd5b7f4e487b7100000000000000000000000000000000000000000000000000000000600052604160045260246000fd5b6000819050919050565b610afb610af682610710565b610ae0565b82525050565b6000610b0d8286610aea565b602082019150610b1d8285610aea565b602082019150610b2d8284610aea565b60208201915081905094935050505056fea2646970667358221220bf3d3ac48e49c6007f25cf9365872ed4c976131b51cceabc0c4562c4bd6a52ba64736f6c63430008100033",
  "immutableReferences": {},
  "source": "// SPDX-License-Identifier: UNLICENSED\r\n\r\npragma solidity >=0.5.0 < 0.9.0;\r\n\r\n\r\ncontract Lottery{\r\n    address payable[] public players;\r\n    address manager;\r\n    address payable public winner;\r\n\r\n    constructor(){\r\n        manager = msg.sender;\r\n    }\r\n\r\n\r\n    receive() external payable{\r\n        require(msg.value == 1 ether,\"Please pay 1 ether only\");\r\n        players.push(payable(msg.sender));\r\n    }\r\n\r\n    function getBalance() public view returns(uint){\r\n        require(manager == msg.sender,\"you are not the manager\");\r\n        return address(this).balance;\r\n    }\r\n\r\n    function random() internal view returns(uint){\r\n        return uint(keccak256(abi.encodePacked(block.difficulty,block.timestamp,players.length)));\r\n    }\r\n\r\n    function pickWinner() public{\r\n        require(msg.sender == manager,\"Your are not manager\");\r\n        require(players.length >= 3, \"Player are less then 3\");\r\n\r\n        uint r = random();\r\n\r\n        uint index = r%players.length;\r\n        winner = players[index];\r\n\r\n        winner.transfer(getBalance());\r\n        players = new address payable[](0);\r\n    }\r\n\r\n    function alPlayers() public view returns(address payable[] memory){\r\n        return players;\r\n    }\r\n}\r\n",
  "sourcePath": "C:\\Users\\IOTric\\Desktop\\mine\\blockchain\\lottery-Dapp\\smart-contract\\contracts\\Lottery.sol",
  "compiler": {
    "name": "solc",
    "version": "0.8.16+commit.07a7930e.Emscripten.clang"
  },
  "schemaVersion": "3.4.9",
  "updatedAt": "2022-09-18T05:44:52.926Z",
  "networkType": "ethereum",
  "devdoc": {
    "kind": "dev",
    "methods": {},
    "version": 1
  },
  "userdoc": {
    "kind": "user",
    "methods": {},
    "version": 1
  }
}